:020000040800F2
:100000001805002001010008131000086B0F0008FC
:100010001110000899010008D51300080000000025
:100020000000000000000000000000003710000881
:10003000D301000800000000351000083910000846
:100040001B0100081B0100081B0100081B01000820
:100050001B0100081B0100081B0100081B01000810
:100060001B0100081B0100081B0100081B01000800
:100070001B0100081B0100081B0100089D0100086E
:100080001B0100081B0100081B0100081B010008E0
:100090001B0100081B0100081B0100081B010008D0
:1000A0001B0100081B0100081B0100081B010008C0
:1000B0001B0100081B0100081B0100081B010008B0
:1000C0001B0100081B0100081B0100081B010008A0
:1000D0001B0100088D1300081B0100081B0100080C
:1000E0001B0100081B0100081B010008DFF80CD0F1
:1000F00000F040F800480047E91500081805002006
:100100000648804706480047FEE7FEE7FEE7FEE7B1
:10011000FEE7FEE7FEE7FEE7FEE7FEE7B1100008B8
:10012000ED000008D2B201E000F8012B491EFBD21D
:1001300070470022F6E710B513460A4604461946F2
:10014000FFF7F0FF204610BD30B50B4601460020FA
:100150002022012409E021FA02F59D4205D303FA89
:1001600002F5491B04FA02F52844151EA2F101020A
:10017000F1DC30BD064C074D06E0E06840F00103BD
:1001800094E8070098471034AC42F6D3FFF7B2FF6B
:100190007C1600089C160008FEE70000014800F0ED
:1001A00031B80000D000002030B590F84050012454
:1001B000AC40C56B6C60046863604368102B0368D7
:1001C00003D099600068C26030BD9A600068C16069
:1001D00030BD704701680A6822F00E020A600168AB
:1001E0000A6822F001020A6090F84020C36B0121E6
:1001F00001FA02F25A6080F82110002180F82010E4
:10020000084670472DE9F05FC16B0C6801680B6808
:10021000D0F840C0042202FA0CF2494DDFF824A1C4
:10022000494E4A4FDFF828B1DFF828E122422CD0AE
:100230005A072AD50A68920603D40A6822F00402F3
:100240000A600168A94201D1042219E0514501D197
:10025000402215E0B14202D14FF4806210E0B94271
:1002600002D14FF480420BE0594502D14FF4802275
:1002700006E0714502D14FF4800201E04FF0806248
:100280002F4908394A60C16A3BE04FF0020808FA7A
:100290000CF818EA040F4FF000094FF0010235D0B6
:1002A0005FEA837832D50B689B0605D40B6823F090
:1002B0000A030B6080F821200168A94201D10222C3
:1002C00019E0514501D1202215E0B14202D14FF48D
:1002D000007210E0B94202D14FF400520BE05945D0
:1002E00002D14FF4003206E0714502D14FF4001202
:1002F00001E04FF00072124908394A6080F82090FE
:10030000816A00291AD0BDE8F05F0847082505FA80
:100310000CF5254212D01B0710D50B6823F00E03F5
:100320000B6090F84010C36B02FA01F159608263D0
:1003300080F8212080F82090016BE2E7BDE8F09F73
:10034000080002401C00024030000240440002400D
:10035000580002406C00024030B548B308C8154947
:1003600014221944B1FBF2F18900C163124981637F
:10037000022141771A6843F6F0718A43D0E90014EC
:100380002143D0E902452C432143046921434469B8
:100390002143846921431143196000214162816234
:1003A000C16201634163012242770177084630BD93
:1003B000012030BDF8FFFDBF0000024070B50446CB
:1003C00090F82000002501280CD0012084F820009E
:1003D00094F821600020012E06D084F82000022528
:1003E000284670BD022070BD022684F82160A063FB
:1003F0002068066826F0010606602046FFF7D4FE56
:10040000E06A00282068016802D041F00E0106E091
:1004100021F0040101602068016841F00A010160D7
:100420002068016841F001010160D9E72DE9F84F2A
:10043000DFF890A100220AF1040B144601274FF0C7
:100440000F090BF1040E00BF0B6807FA04F52B40EF
:10045000AB4274D1DFF870C14E68A6EB0C0866455C
:100460002BD00DDC032E34D005DC36B3012E19D091
:10047000022E2FD11BE0112E16D0122E2AD119E0F8
:10048000B8F5881F19D006DCB8F5803F15D0B8F54F
:10049000801F1FD111E0B8F5001F0ED0B8F5041F62
:1004A00018D10AE0CA6815E0CA68121D12E0CA68CD
:1004B00008320FE0CA680C320CE08A682AB1012ABF
:1004C0004FF0080203D0456104E0042202E0056118
:1004D00000E00022FF2B01D8064601E000F10406EF
:1004E0004FEA840501D9A5F12005D6F800C009FA24
:1004F00005F82CEA080C02FA05F54CEA050CC6F8DA
:1005000000C04D68ED0057D5304DAE6946F001068C
:10051000AE61AD6924F0030605F0010500952C4D90
:1005200006EB050CDCF80850A6074FEA167809FA26
:1005300008F6B543274EB04202D1002610E03BE05A
:10054000254EB04201D101260AE0244EB04201D12D
:10055000022605E0224EB04201D1032600E0042627
:1005600006FA08F62E43CCF808604D68DAF8006009
:10057000ED03554601D51E4300E09E432E604D68B5
:10058000DBF80060AD035D4601D51E4300E09E43ED
:100590002E604D68DEF80060ED02754601D51E4301
:1005A00000E09E432E604D68AD020E4D2E6801D5D1
:1005B0001E4300E09E432E60641C102CFFF444AFE9
:1005C000BDE8F88F00040140000011100010024047
:1005D0000000014000080140000C014000100140F3
:1005E000001401400C0401400148006870470000FD
:1005F0000000002002480168491C016070470000AB
:1006000000000020074810B5016841F010010160AA
:10061000032000F08BF8002000F006F800F018F836
:10062000002010BD0020024010B5044607484FF4DA
:100630007A710068B0FBF1F000F01FFB0022214648
:10064000501E00F053F8002010BD000008000020EC
:100650001E4808B5816941F001018161806900F09F
:1006600001000090032000F061F8002211466FF0B5
:100670000B0000F03BF8002211466FF00A0000F07A
:1006800035F8002211466FF0090000F02FF8002223
:100690001146501F00F02AF800221146101F00F0EA
:1006A00025F800221146901E00F020F80022114685
:1006B000501E00F01BF80648416821F0E0614160DF
:1006C000416841F08061416008BD000000100240B7
:1006D0000000014000F01F0201219140400980000C
:1006E00000F1E020C0F8001170470000F0B40E4B9C
:1006F0001B680C46C3F30223C3F10705042D00D980
:100700000425191D072901D2002300E0DB1E012664
:1007100006FA05F1491E214099409E40761E16407A
:100720003143F0BC00F076BC0CED00E0064900F06F
:10073000070208684FF6FF03184040EA0220034A08
:1007400010430860704700000CED00E00000FA055F
:100750002DE9F047DFF83C8105460E46D8F8000049
:1007600000F00700B0420CD2D8F8001021F00701C9
:100770003143C8F80010D8F8000000F00700B0427C
:1007800063D12878444C800705D56068A96820F0BB
:10079000F000084360602878C00745D068680128E9
:1007A00016D02168022816D0890700294DDA616821
:1007B00021F0030101436160FFF716FF69680746F6
:1007C00041F2883001290FD00229814619D027E053
:1007D00021688903E9E78901E7E700BFFFF704FF24
:1007E000C11B494501D918E081466068C0F381000A
:1007F0000128F3D118E000BFFFF7F6FEC11B494501
:100800000BD86068C0F381000228F5D10CE000BF6E
:10081000FFF7EAFEC11B494502D90320BDE8F08776
:10082000606810F00C0FF3D1D8F80010404601F0CA
:100830000701B1420BD9016821F007013143016082
:10084000006800F00700B04201D00120E6E72878F8
:10085000400705D56068E96820F4E06008436060FF
:100860002878000706D56068296920F4605040EABE
:10087000C100606000F03CF86168084AC1F30311F0
:10088000515CC840064908600020FFF7CDFE0020FB
:10089000C4E7000000200240001002406416000877
:1008A0000800002001480068704700000800002090
:1008B0000448054900684968044AC1F30221515CB3
:1008C000C84070470800002000100240741600085D
:1008D0000448054900684968044AC1F3C221515CD3
:1008E000C84070470800002000100240741600083D
:1008F00010B512A385B00FCB8DE80F0013A0144BD9
:10090000006804905A68134802F00C0104290FD0C3
:1009100008290DD1C2F38344D2031DF8041009D570
:100920005A6804ABC2F340429A5CB0FBF2F0484311
:1009300005B010BD08484843FAE70000020304056B
:10094000060708090A0B0C0D0E0F1010010200001B
:100950000010024000127A0000093D002DE9F84F16
:1009600004460078B94DC00748D06868C0F38100DC
:10097000012807D06868C0F38100022809D168689F
:10098000C00306D52868800338D5606800286FD07A
:1009900034E06068B0F5803F0BD010B1B0F5A02F07
:1009A00011D0286820F480302860286820F4802046
:1009B00002E0286840F480302860606888B1FFF762
:1009C00013FE064609E0286840F480202860F0E71E
:1009D000FFF70AFE801B642875D828688003F7D5C6
:1009E0000CE0FFF701FE064605E000BFFFF7FCFD47
:1009F000801B6428F0D828688003F7D42078944EB0
:100A000080074FF001094FF000083BD5686810F0EF
:100A10000C0F07D06868C0F38100022809D168680C
:100A2000C00306D42868800714D5206901281FD187
:100A300010E02069B0B1C6F80090FFF7D5FD074679
:100A400005E000BFFFF7D0FDC01B0228C4D828680E
:100A50008007F7D52868616920F0F80040EAC100F6
:100A600028600FE0C6F80080FFF7BEFD074606E0ED
:100A7000E9E000BFFFF7B8FDC01B022823D82868B3
:100A80008007F7D4207800072CD57248A169D9B126
:100A9000C0F80090FFF7A8FD074604E0FFF7A4FDAB
:100AA000C01B02280FD8686A8007F7D56A484FF440
:100AB000FA510068B0FBF1F0009000BF0098411EB1
:100AC0000091FAD20EE080E0C0F80080FFF78CFDC4
:100AD000074604E0FFF788FDC01B022875D8686A46
:100AE0008007F7D42078400760D5E8690027C00068
:100AF00008D4E86940F08050E861E869012700F017
:100B00008050009055480168C90513D40168834698
:100B100041F480710160FFF767FD824606E000BF87
:100B2000FFF762FDA0EB0A0064284ED8DBF8000056
:100B3000C005F5D5E06801280AD008B1052813D012
:100B4000286A20F001002862286A20F0040002E0F0
:100B5000286A40F001002862E06841F2883B98B1C1
:100B6000FFF742FD82460BE0286A40F0040028624D
:100B7000EEE700BFFFF738FDA0EB0A0159455AD850
:100B8000286A8007F6D50CE0FFF72EFD824605E0C7
:100B9000FFF72AFDA0EB0A0159454CD8286A8007C7
:100BA000F6D41FB1E86920F08050E861E06988B3AD
:100BB0006968C1F38101022945D00228C6F8608026
:100BC00004D0FFF711FD044638E034E0FFF70CFDD8
:100BD000074604E0FFF708FDC01B02282BD8286851
:100BE0008001F7D4206AB0F5803F05D16868A1681C
:100BF00020F4003008436860D4E9080108436968BC
:100C000021F4741108436860C6F86090FFF7ECFCAB
:100C1000044606E015E000BFFFF7E6FC001B0228D3
:100C200009D828688001F7D50BE000BFFFF7DCFC8E
:100C3000001B022802D90320BDE8F88F2868800134
:100C4000F4D40020F8E70120F6E70000001002408D
:100C50000000424280044242080000200070004030
:100C60004FF0E0210428086903D020F00400086157
:100C7000704740F00400FAE7704710B5401EB0F12D
:100C8000807F01D3012010BD4FF0E02460610F216F
:100C9000601700F0BFF90020A0610720206100204C
:100CA00010BD10B5FFF7E8FF10BD10B50446006891
:100CB000416994F83920C1F3C011212A0BD151B1F7
:100CC000416921F080014161206B08B1FFF782FA90
:100CD000204600F067FA2068416994F83A20C1F391
:100CE0008011222A0BD151B1416921F040014161AB
:100CF000606B08B1FFF76EFA204600F045FA00205D
:100D000010BD704770B5040004D094F83900002578
:100D100010B106E0012070BD84F83850204600F084
:100D200023F8242084F839002068C16821F4005198
:100D3000C160204600F040FA2068016921F490412A
:100D400001612068416921F02A0141612068C16880
:100D500041F40051C160E563202084F8390084F833
:100D60003A00002070BD000070B5064600682049BA
:100D700086B088423AD11F48816941F4804181613F
:100D800080691D4C00F4804004904FF40070009086
:100D9000022001900320039069462046FFF746FB9E
:100DA00000252015CDE90005694620460295FFF78C
:100DB0003DFB134C1148C4E900058020C4E90250F2
:100DC00025616561A5612046E561FFF7C5FA18B1A7
:100DD0006F210CA000F0FFFA746300221146252059
:100DE0006662FFF783FC2520FFF774FC06B070BD38
:100DF0000038014000100240000801405800024045
:100E0000D00000202E2E2F5372632F7573617274E1
:100E10002E630000F8B5044690F83A0020283CD133
:100E2000C1B3BAB394F83800012836D0012084F851
:100E30003800A162A2850025E563222084F83A00EB
:100E4000636B17489862636B1648D862636B1648E9
:100E50001863606B134645630846666B216802465B
:100E60003046091DFFF7AAFA206801684168009121
:100E700084F83850C16841F48071C16020684169CC
:100E800041F0010141612068416941F04001416147
:100E90000020F8BDFFE70120FBE70220F9E7000092
:100EA000431100087F110008F910000870477047CF
:100EB0002DE9F843044690F839001F4616460D46C2
:100EC000202850D1A5B19EB194F8380001284AD00D
:100ED000012084F838004FF00008C4F83C8021203D
:100EE00084F83900FFF780FBA6848146E68426E07B
:100EF0000120BDE8F883E08C401EE084A0684B46EA
:100F0000B0F5805F4FF000024FF08001204600975F
:100F100003D000F009FAE8B90DE000F005FAC8B90D
:100F200028882168C0F308004860206908B16D1C5A
:100F300005E0AD1C03E0216815F8010B4860E08C6A
:100F40000028D8D14B46002240212046009700F0CF
:100F5000EBF908B10320CCE7202084F8390084F8AD
:100F600038800020C5E70220C3E7FEE7094808B53E
:100F7000416941F0010141614069002200F0010036
:100F8000009011460F20FFF7B1FBBDE808400F208D
:100F9000FFF7A0BB00100240094808B5816941F085
:100FA00020018161816901F020010091816941F096
:100FB00004018161806900F00400009008BD000018
:100FC000001002400D4810B50B4901604FF4E131AB
:100FD0004160002181600C22C160C0E9041281617E
:100FE000C161FFF78FFE002805D0BDE81040442105
:100FF00003A000F0F0B910BD0038014090000020BF
:101000002E2E2F5372632F75736172742E6300003E
:10101000FEE770470907090E002806DA00F00F0006
:1010200000F1E02080F8141D704700F1E02080F806
:10103000001470477047704710B5FFF7DBFABDE842
:101040001040FFF72EBE30B58FB001210804CDE966
:1010500000100024029402250491CDE907504FF4BA
:10106000E01009906846FFF779FC00B1FEE70F2019
:10107000CDE90A054FF48060CDE90C4002210AA8B1
:101080000E94FFF765FB00B1FEE7FFF70BFC4FF492
:101090007A71B0FBF1F0FFF7F0FD0420FFF7E0FDFF
:1010A00000221146501EFFF721FB0FB030BD00009B
:1010B0000D48016841F00101016041680B4A11408F
:1010C000416001680A4A11400160016821F48021F1
:1010D0000160416821F4FE0141604FF41F0181600D
:1010E0000449C00308607047001002400000FFF888
:1010F000FFFFF6FE08ED00E070B5446A2068406925
:1011000094F83910C0F3C0100025212904D118B17A
:10111000E584204600F046F82068406994F83A10CB
:10112000C0F38010222904D118B1E585204600F0D3
:101130002BF8E06B40F01000E0632046FFF7E1FD84
:1011400070BD10B50146406A09680968890613D464
:101150000021C1850168CA6822F48072CA600168F2
:101160004A6922F001024A6101684A6922F040029C
:101170004A61202180F83A10FFF798FE10BD10B5A3
:10118000406AFFF794FE10BD0168CA6822F49072AD
:10119000CA6001684A6922F001024A61202180F890
:1011A0003A1070470168CA6822F0C002CA60202164
:1011B00080F83910704700002DE9F04104460068BE
:1011C0000169E26821F44051114301612169A0687D
:1011D0000843616908432168CA6841F20C639A4375
:1011E0000243CA6020684169A26921F44071114339
:1011F00041614C4920686425322688423CD1FFF782
:1012000067FB00EBC00101EB001061688900B0FBD7
:10121000F1F7FFF75DFB00EBC00101EB0010616827
:10122000B0468900B0FBF1F0B0FBF5F06FF01801AB
:10123000484307EB800106EB0110B0FBF5F000F02E
:10124000F006FFF745FB00EBC00101EB0010616801
:101250008900B0FBF1F0B0FBF5F006EB0016FFF7EC
:1012600037FB00EBC00101EB001061688900B0FBA7
:10127000F1F7FFF72DFB3BE0FFF71AFB00EBC00196
:1012800001EB001061688900B0FBF1F7FFF710FB7C
:1012900000EBC00101EB00106168B0468900B0FBB3
:1012A000F1F0B0FBF5F06FF01801484307EB800157
:1012B00006EB0110B0FBF5F000F0F006FFF7F8FACE
:1012C00000EBC00101EB001061688900B0FBF1F098
:1012D000B0FBF5F006EB0016FFF7EAFA00EBC001F1
:1012E00001EB001061688900B0FBF1F7FFF7E0FA4D
:1012F00000EBC00101EB001061688900B0FBF1F068
:10130000B0FBF5F06FF01801484307EB800108EBE4
:101310000110B0FBF5F0216800F00F003044886048
:10132000BDE8F081003801402DE9F04198461746AC
:101330000E460446069D1DE0681C1BD02DB1FFF72C
:1013400053F9A0EB0800A84214D92068C16821F421
:10135000D071C1602068416921F001014161202004
:1013600084F8390084F83A00002084F8380003201B
:10137000BDE8F0812068006836EA000004D0002053
:10138000B842D9D00020F3E70120F9E70D4808B5AD
:1013900000680168C1F30011002911D0016841689B
:1013A0000091016840680748FFF77FFC0648006825
:1013B00040680649C0F180000870054901200870A6
:1013C00008BD000090000020D00000200400002094
:1013D00005000020FEE7FEE70FB4054B10B503A99A
:1013E000044A029800F018F810BC5DF814FB0000E5
:1013F000D11500080C00002002E008C8121F08C127
:10140000002AFAD170477047002001E001C1121F85
:10141000002AFBD1704700002DE9FF4F8BB09A46A0
:101420000F460546002606E025280BD052460D99AA
:1014300090476D1C761C28780028F5D10FB03046F7
:10144000BDE8F08F0024A0460122604900E004437B
:1014500015F8013F203B02FA03F00842F7D1287843
:101460002E2817D115F8010F44F004042A280ED0B5
:101470006FF02F022878A0F1300109290AD808EB73
:10148000880102EB410100EB01086D1CF2E757F8FF
:10149000048B6D1C287869283ED006DC0028CDD04E
:1014A00063280BD0642804D136E0732810D0752847
:1014B0004BD052460D999047761C85E017F8040BE7
:1014C0008DF8000000208DF80100E946012003E0BE
:1014D00057F8049B4FF0FF3061074FF0000401D430
:1014E0000AE0641C44450DDA8442FADB19F8041062
:1014F0000029F6D106E0641C8442FCDB19F80410D4
:101500000029F8D1264404E019F8010B52460D9940
:101510009047641EF8D257E001CF4FF00A0B002825
:1015200002DA40422D2102E0210504D52B218DF85D
:101530002410012103E0E10705D02021F7E70DF198
:10154000200908910CE00021F9E701CF4FF00A0BC8
:10155000F9E75946FEF7F8FD01F1300209F8012DCF
:101560000028F6D1ADEB090000F1200B600701D493
:101570004FF00108D84502DDA8EB0B0000E0002089
:101580008046002406E009A85246005D0D99904768
:10159000641C761C08988442F5DB04E03020524637
:1015A0000D999047761CB8F10001A8F10108F5DC0F
:1015B00005E019F8010B52460D999047761CBBF1D6
:1015C0000001ABF1010BF4DC6D1C34E709280100CC
:1015D00013B54FF6FF73012269460248FFF768FC16
:1015E00000981CBD90000020FFF70CF8FFF72BFDC2
:1015F000FFF7D2FCFFF7BAFCFFF7E4FC0F480068E6
:10160000C16841F01001C1600D4C002560780128CF
:101610000DD121780BA0FFF7DFFE0D490DA0FFF7DC
:10162000DBFE2570657080210948FEF782FD80226F
:1016300007490248FFF7EEFBE8E7000090000020B2
:101640000400002072785F6C656E3D25640D0A0011
:101650001000002072785F6275666665723A2573C5
:101660000D0A000000000000000000000102030459
:101670000607080900000000010203049C16000888
:101680000000002010000000F8130008AC1600084D
:1016900010000020080500000814000800000000E9
:0C16A0000000000000A24A04000000004E
:04000005080000ED02
:00000001FF
